{
  "_format": "hh3-artifact-1",
  "contractName": "NFTMinter",
  "sourceName": "contracts/NFTMinter.sol",
  "abi": [
    {
      "inputs": [
        {
          "internalType": "address",
          "name": "paymentTokenAddress",
          "type": "address"
        }
      ],
      "stateMutability": "nonpayable",
      "type": "constructor"
    },
    {
      "anonymous": false,
      "inputs": [
        {
          "indexed": true,
          "internalType": "address",
          "name": "from",
          "type": "address"
        },
        {
          "indexed": true,
          "internalType": "address",
          "name": "to",
          "type": "address"
        },
        {
          "indexed": true,
          "internalType": "uint256",
          "name": "tokenId",
          "type": "uint256"
        }
      ],
      "name": "Transfer",
      "type": "event"
    },
    {
      "inputs": [],
      "name": "NFT_PRICE",
      "outputs": [
        {
          "internalType": "uint256",
          "name": "",
          "type": "uint256"
        }
      ],
      "stateMutability": "view",
      "type": "function"
    },
    {
      "inputs": [
        {
          "internalType": "address",
          "name": "",
          "type": "address"
        }
      ],
      "name": "balanceOf",
      "outputs": [
        {
          "internalType": "uint256",
          "name": "",
          "type": "uint256"
        }
      ],
      "stateMutability": "view",
      "type": "function"
    },
    {
      "inputs": [
        {
          "internalType": "address",
          "name": "to",
          "type": "address"
        },
        {
          "internalType": "string",
          "name": "uri",
          "type": "string"
        }
      ],
      "name": "mintNFT",
      "outputs": [],
      "stateMutability": "nonpayable",
      "type": "function"
    },
    {
      "inputs": [],
      "name": "name",
      "outputs": [
        {
          "internalType": "string",
          "name": "",
          "type": "string"
        }
      ],
      "stateMutability": "view",
      "type": "function"
    },
    {
      "inputs": [
        {
          "internalType": "uint256",
          "name": "",
          "type": "uint256"
        }
      ],
      "name": "ownerOf",
      "outputs": [
        {
          "internalType": "address",
          "name": "",
          "type": "address"
        }
      ],
      "stateMutability": "view",
      "type": "function"
    },
    {
      "inputs": [],
      "name": "paymentToken",
      "outputs": [
        {
          "internalType": "contract IPaymentToken",
          "name": "",
          "type": "address"
        }
      ],
      "stateMutability": "view",
      "type": "function"
    },
    {
      "inputs": [],
      "name": "symbol",
      "outputs": [
        {
          "internalType": "string",
          "name": "",
          "type": "string"
        }
      ],
      "stateMutability": "view",
      "type": "function"
    },
    {
      "inputs": [
        {
          "internalType": "uint256",
          "name": "",
          "type": "uint256"
        }
      ],
      "name": "tokenURI",
      "outputs": [
        {
          "internalType": "string",
          "name": "",
          "type": "string"
        }
      ],
      "stateMutability": "view",
      "type": "function"
    }
  ],
  "bytecode": "0x60c0604052600a60809081526914185e5b595b9d13919560b21b60a0525f906100289082610139565b506040805180820190915260048152631413919560e21b60208201526001906100519082610139565b5034801561005d575f5ffd5b506040516108fb3803806108fb83398101604081905261007c916101f3565b600280546001600160a01b0319166001600160a01b0392909216919091179055610220565b634e487b7160e01b5f52604160045260245ffd5b600181811c908216806100c957607f821691505b6020821081036100e757634e487b7160e01b5f52602260045260245ffd5b50919050565b601f82111561013457805f5260205f20601f840160051c810160208510156101125750805b601f840160051c820191505b81811015610131575f815560010161011e565b50505b505050565b81516001600160401b03811115610152576101526100a1565b6101668161016084546100b5565b846100ed565b6020601f821160018114610198575f83156101815750848201515b5f19600385901b1c1916600184901b178455610131565b5f84815260208120601f198516915b828110156101c757878501518255602094850194600190920191016101a7565b50848210156101e457868401515f19600387901b60f8161c191681555b50505050600190811b01905550565b5f60208284031215610203575f5ffd5b81516001600160a01b0381168114610219575f5ffd5b9392505050565b6106ce8061022d5f395ff3fe608060405234801561000f575f5ffd5b5060043610610085575f3560e01c806370a082311161005857806370a082311461011857806395d89b4114610137578063c87b56dd1461013f578063eacabe1414610152575f5ffd5b806306fdde03146100895780633013ce29146100a75780636352211e146100d2578063676dd563146100fa575b5f5ffd5b610091610167565b60405161009e91906103dd565b60405180910390f35b6002546100ba906001600160a01b031681565b6040516001600160a01b03909116815260200161009e565b6100ba6100e0366004610412565b60046020525f90815260409020546001600160a01b031681565b61010a6802b5e3af16b188000081565b60405190815260200161009e565b61010a610126366004610444565b60056020525f908152604090205481565b6100916101f2565b61009161014d366004610412565b6101ff565b610165610160366004610464565b610217565b005b5f8054610173906104e2565b80601f016020809104026020016040519081016040528092919081815260200182805461019f906104e2565b80156101ea5780601f106101c1576101008083540402835291602001916101ea565b820191905f5260205f20905b8154815290600101906020018083116101cd57829003601f168201915b505050505081565b60018054610173906104e2565b60066020525f908152604090208054610173906104e2565b6001600160a01b0383166102645760405162461bcd60e51b815260206004820152600f60248201526e496e76616c6964206164647265737360881b60448201526064015b60405180910390fd5b6002546040516323b872dd60e01b81523360048201523060248201526802b5e3af16b188000060448201525f916001600160a01b0316906323b872dd906064016020604051808303815f875af11580156102c0573d5f5f3e3d5ffd5b505050506040513d601f19601f820116820180604052508101906102e4919061051a565b9050806103245760405162461bcd60e51b815260206004820152600e60248201526d14185e5b595b9d0819985a5b195960921b604482015260640161025b565b60038054905f6103338361054d565b90915550506003545f81815260046020908152604080832080546001600160a01b0319166001600160a01b038a16908117909155835260059091528120805460019290610381908490610565565b90915550505f81815260066020526040902061039e8486836105de565b5060405181906001600160a01b038716905f907fddf252ad1be2c89b69c2b068fc378daa952ba7f163c4a11628f55a4df523b3ef908290a45050505050565b602081525f82518060208401528060208501604085015e5f604082850101526040601f19601f83011684010191505092915050565b5f60208284031215610422575f5ffd5b5035919050565b80356001600160a01b038116811461043f575f5ffd5b919050565b5f60208284031215610454575f5ffd5b61045d82610429565b9392505050565b5f5f5f60408486031215610476575f5ffd5b61047f84610429565b9250602084013567ffffffffffffffff81111561049a575f5ffd5b8401601f810186136104aa575f5ffd5b803567ffffffffffffffff8111156104c0575f5ffd5b8660208284010111156104d1575f5ffd5b939660209190910195509293505050565b600181811c908216806104f657607f821691505b60208210810361051457634e487b7160e01b5f52602260045260245ffd5b50919050565b5f6020828403121561052a575f5ffd5b8151801515811461045d575f5ffd5b634e487b7160e01b5f52601160045260245ffd5b5f6001820161055e5761055e610539565b5060010190565b8082018082111561057857610578610539565b92915050565b634e487b7160e01b5f52604160045260245ffd5b601f8211156105d957805f5260205f20601f840160051c810160208510156105b75750805b601f840160051c820191505b818110156105d6575f81556001016105c3565b50505b505050565b67ffffffffffffffff8311156105f6576105f661057e565b61060a8361060483546104e2565b83610592565b5f601f84116001811461063b575f85156106245750838201355b5f19600387901b1c1916600186901b1783556105d6565b5f83815260208120601f198716915b8281101561066a578685013582556020948501946001909201910161064a565b5086821015610686575f1960f88860031b161c19848701351681555b505060018560011b018355505050505056fea264697066735822122065e953e079647d7cad56324e1a1e2b64d96e744b75f3f9365542d83db345c27164736f6c634300081c0033",
  "linkReferences": {},
  "deployedLinkReferences": {},
  "immutableReferences": {},
  "inputSourceName": "project/contracts/NFTMinter.sol",
  "buildInfoId": "solc-0_8_28-ebb5d05b7a5913b0cd90c1f237d374b8cc0a20a0"
}