{
  "_format": "hh3-artifact-1",
  "contractName": "PaymentToken",
  "sourceName": "contracts/PaymentToken.sol",
  "abi": [
    {
      "inputs": [],
      "stateMutability": "nonpayable",
      "type": "constructor"
    },
    {
      "anonymous": false,
      "inputs": [
        {
          "indexed": true,
          "internalType": "address",
          "name": "owner",
          "type": "address"
        },
        {
          "indexed": true,
          "internalType": "address",
          "name": "spender",
          "type": "address"
        },
        {
          "indexed": false,
          "internalType": "uint256",
          "name": "value",
          "type": "uint256"
        }
      ],
      "name": "Approval",
      "type": "event"
    },
    {
      "anonymous": false,
      "inputs": [
        {
          "indexed": true,
          "internalType": "address",
          "name": "from",
          "type": "address"
        },
        {
          "indexed": true,
          "internalType": "address",
          "name": "to",
          "type": "address"
        },
        {
          "indexed": false,
          "internalType": "uint256",
          "name": "value",
          "type": "uint256"
        }
      ],
      "name": "Transfer",
      "type": "event"
    },
    {
      "inputs": [],
      "name": "TOKENS_PER_ETH",
      "outputs": [
        {
          "internalType": "uint256",
          "name": "",
          "type": "uint256"
        }
      ],
      "stateMutability": "view",
      "type": "function"
    },
    {
      "inputs": [
        {
          "internalType": "address",
          "name": "owner",
          "type": "address"
        },
        {
          "internalType": "address",
          "name": "spender",
          "type": "address"
        }
      ],
      "name": "allowance",
      "outputs": [
        {
          "internalType": "uint256",
          "name": "",
          "type": "uint256"
        }
      ],
      "stateMutability": "view",
      "type": "function"
    },
    {
      "inputs": [
        {
          "internalType": "address",
          "name": "spender",
          "type": "address"
        },
        {
          "internalType": "uint256",
          "name": "amount",
          "type": "uint256"
        }
      ],
      "name": "approve",
      "outputs": [
        {
          "internalType": "bool",
          "name": "",
          "type": "bool"
        }
      ],
      "stateMutability": "nonpayable",
      "type": "function"
    },
    {
      "inputs": [
        {
          "internalType": "address",
          "name": "account",
          "type": "address"
        }
      ],
      "name": "balanceOf",
      "outputs": [
        {
          "internalType": "uint256",
          "name": "",
          "type": "uint256"
        }
      ],
      "stateMutability": "view",
      "type": "function"
    },
    {
      "inputs": [],
      "name": "buyTokens",
      "outputs": [],
      "stateMutability": "payable",
      "type": "function"
    },
    {
      "inputs": [],
      "name": "decimals",
      "outputs": [
        {
          "internalType": "uint8",
          "name": "",
          "type": "uint8"
        }
      ],
      "stateMutability": "view",
      "type": "function"
    },
    {
      "inputs": [],
      "name": "name",
      "outputs": [
        {
          "internalType": "string",
          "name": "",
          "type": "string"
        }
      ],
      "stateMutability": "view",
      "type": "function"
    },
    {
      "inputs": [],
      "name": "symbol",
      "outputs": [
        {
          "internalType": "string",
          "name": "",
          "type": "string"
        }
      ],
      "stateMutability": "view",
      "type": "function"
    },
    {
      "inputs": [],
      "name": "totalSupply",
      "outputs": [
        {
          "internalType": "uint256",
          "name": "",
          "type": "uint256"
        }
      ],
      "stateMutability": "view",
      "type": "function"
    },
    {
      "inputs": [
        {
          "internalType": "address",
          "name": "to",
          "type": "address"
        },
        {
          "internalType": "uint256",
          "name": "amount",
          "type": "uint256"
        }
      ],
      "name": "transfer",
      "outputs": [
        {
          "internalType": "bool",
          "name": "",
          "type": "bool"
        }
      ],
      "stateMutability": "nonpayable",
      "type": "function"
    },
    {
      "inputs": [
        {
          "internalType": "address",
          "name": "from",
          "type": "address"
        },
        {
          "internalType": "address",
          "name": "to",
          "type": "address"
        },
        {
          "internalType": "uint256",
          "name": "amount",
          "type": "uint256"
        }
      ],
      "name": "transferFrom",
      "outputs": [
        {
          "internalType": "bool",
          "name": "",
          "type": "bool"
        }
      ],
      "stateMutability": "nonpayable",
      "type": "function"
    }
  ],
  "bytecode": "0x60c0604052600c60809081526b2830bcb6b2b73a2a37b5b2b760a11b60a0525f9061002a908261017e565b5060408051808201909152600381526250415960e81b6020820152600190610052908261017e565b506002805460ff1916601217905534801561006b575f5ffd5b506002545f9061007f9060ff16600a610331565b61008c90620f4240610346565b6003819055305f818152600460205260408082208490555192935090917fddf252ad1be2c89b69c2b068fc378daa952ba7f163c4a11628f55a4df523b3ef906100d89085815260200190565b60405180910390a35061035d565b634e487b7160e01b5f52604160045260245ffd5b600181811c9082168061010e57607f821691505b60208210810361012c57634e487b7160e01b5f52602260045260245ffd5b50919050565b601f82111561017957805f5260205f20601f840160051c810160208510156101575750805b601f840160051c820191505b81811015610176575f8155600101610163565b50505b505050565b81516001600160401b03811115610197576101976100e6565b6101ab816101a584546100fa565b84610132565b6020601f8211600181146101dd575f83156101c65750848201515b5f19600385901b1c1916600184901b178455610176565b5f84815260208120601f198516915b8281101561020c57878501518255602094850194600190920191016101ec565b508482101561022957868401515f19600387901b60f8161c191681555b50505050600190811b01905550565b634e487b7160e01b5f52601160045260245ffd5b6001815b60018411156102875780850481111561026b5761026b610238565b600184161561027957908102905b60019390931c928002610250565b935093915050565b5f8261029d5750600161032b565b816102a957505f61032b565b81600181146102bf57600281146102c9576102e5565b600191505061032b565b60ff8411156102da576102da610238565b50506001821b61032b565b5060208310610133831016604e8410600b8410161715610308575081810a61032b565b6103145f19848461024c565b805f190482111561032757610327610238565b0290505b92915050565b5f61033f60ff84168361028f565b9392505050565b808202811582820484141761032b5761032b610238565b6108928061036a5f395ff3fe60806040526004361061009a575f3560e01c806370a082311161006257806370a082311461015557806395d89b4114610189578063a9059cbb1461019d578063bc6e6604146101bc578063d0febe4c146101d1578063dd62ed3e146101db575f5ffd5b806306fdde031461009e578063095ea7b3146100c857806318160ddd146100f757806323b872dd14610115578063313ce56714610134575b5f5ffd5b3480156100a9575f5ffd5b506100b261021f565b6040516100bf91906106d0565b60405180910390f35b3480156100d3575f5ffd5b506100e76100e2366004610720565b6102ae565b60405190151581526020016100bf565b348015610102575f5ffd5b506003545b6040519081526020016100bf565b348015610120575f5ffd5b506100e761012f366004610748565b61031a565b34801561013f575f5ffd5b5060025460405160ff90911681526020016100bf565b348015610160575f5ffd5b5061010761016f366004610782565b6001600160a01b03165f9081526004602052604090205490565b348015610194575f5ffd5b506100b26104c6565b3480156101a8575f5ffd5b506100e76101b7366004610720565b6104d5565b3480156101c7575f5ffd5b506101076103e881565b6101d96105b1565b005b3480156101e6575f5ffd5b506101076101f53660046107a2565b6001600160a01b039182165f90815260056020908152604080832093909416825291909152205490565b60605f805461022d906107d3565b80601f0160208091040260200160405190810160405280929190818152602001828054610259906107d3565b80156102a45780601f1061027b576101008083540402835291602001916102a4565b820191905f5260205f20905b81548152906001019060200180831161028757829003601f168201915b5050505050905090565b335f8181526005602090815260408083206001600160a01b038716808552925280832085905551919290917f8c5be1e5ebec7d5bd14f71427d1e84f3dd0314c0f7b2291e5b200ac8c7c3b925906103089086815260200190565b60405180910390a35060015b92915050565b6001600160a01b0383165f908152600460205260408120548211156103785760405162461bcd60e51b815260206004820152600f60248201526e42616c616e636520746f6f206c6f7760881b60448201526064015b60405180910390fd5b6001600160a01b0384165f9081526005602090815260408083203384529091529020548211156103de5760405162461bcd60e51b8152602060048201526011602482015270416c6c6f77616e636520746f6f206c6f7760781b604482015260640161036f565b6001600160a01b0384165f9081526005602090815260408083203384529091528120805484929061041090849061081f565b90915550506001600160a01b0384165f908152600460205260408120805484929061043c90849061081f565b90915550506001600160a01b0383165f9081526004602052604081208054849290610468908490610832565b92505081905550826001600160a01b0316846001600160a01b03167fddf252ad1be2c89b69c2b068fc378daa952ba7f163c4a11628f55a4df523b3ef846040516104b491815260200190565b60405180910390a35060019392505050565b60606001805461022d906107d3565b335f908152600460205260408120548211156105255760405162461bcd60e51b815260206004820152600f60248201526e42616c616e636520746f6f206c6f7760881b604482015260640161036f565b335f908152600460205260408120805484929061054390849061081f565b90915550506001600160a01b0383165f908152600460205260408120805484929061056f908490610832565b90915550506040518281526001600160a01b0384169033907fddf252ad1be2c89b69c2b068fc378daa952ba7f163c4a11628f55a4df523b3ef90602001610308565b5f34116105ee5760405162461bcd60e51b815260206004820152600b60248201526a139bc8115512081cd95b9d60aa1b604482015260640161036f565b5f6105fb6103e834610845565b305f908152600460205260409020549091508111156106505760405162461bcd60e51b81526020600482015260116024820152704e6f7420656e6f75676820746f6b656e7360781b604482015260640161036f565b305f908152600460205260408120805483929061066e90849061081f565b9091555050335f9081526004602052604081208054839290610691908490610832565b9091555050604051818152339030907fddf252ad1be2c89b69c2b068fc378daa952ba7f163c4a11628f55a4df523b3ef9060200160405180910390a350565b602081525f82518060208401528060208501604085015e5f604082850101526040601f19601f83011684010191505092915050565b80356001600160a01b038116811461071b575f5ffd5b919050565b5f5f60408385031215610731575f5ffd5b61073a83610705565b946020939093013593505050565b5f5f5f6060848603121561075a575f5ffd5b61076384610705565b925061077160208501610705565b929592945050506040919091013590565b5f60208284031215610792575f5ffd5b61079b82610705565b9392505050565b5f5f604083850312156107b3575f5ffd5b6107bc83610705565b91506107ca60208401610705565b90509250929050565b600181811c908216806107e757607f821691505b60208210810361080557634e487b7160e01b5f52602260045260245ffd5b50919050565b634e487b7160e01b5f52601160045260245ffd5b818103818111156103145761031461080b565b808201808211156103145761031461080b565b80820281158282048414176103145761031461080b56fea26469706673582212209dc57bb9755a5f7058afc1f985e3b26aca6fc379c50e50665bb47252d931a3ad64736f6c634300081c0033",
  "linkReferences": {},
  "deployedLinkReferences": {},
  "immutableReferences": {},
  "inputSourceName": "project/contracts/PaymentToken.sol",
  "buildInfoId": "solc-0_8_28-5c40aee2597597c42fd7b72f7c73be258885fba2"
}